:0200000280007C
:10000000D0AC072045230800412308004123080005
:10001000412308004123080041230800000000009C
:100020000000000000000000000000003D06080085
:100030004123080000000000B9060800F50608008A
:100040004123080041230800412308004123080000
:1000500041230800412308004123080041230800F0
:10006000412308004123080000000000B1210800DE
:10007000C5210800D9210800ED210800000000007A
:1000800000000000B11B08004123080041230800C4
:1000900041230800412308004123080041230800B0
:1000A000412308000000000041230800412308000C
:1000B0004123080041230800412308004123080090
:1000C0004123080041230800412308004123080080
:1000D0004123080041230800412308004123080070
:1000E0004123080041230800412308004123080060
:1000F0004123080010B5054C237833B9044B13B1E4
:100100000448AFF300800123237010BDA809072025
:10011000000000008C58080008B5064B1BB10648CB
:100120000649AFF300800648036813B1054B03B1DD
:10013000984708BD000000008C580800AC09072053
:100140008C58080000000000012935D1182813D070
:1001500002D8172805D070471F2818D0492821D069
:100160007047164B1A6842F480421A6010331A68BE
:1001700042F480421A607047104B1A6842F4004201
:100180001A6010331A6842F400421A6070470B4B31
:100190001A6842F080021A6010331A6842F0800236
:1001A0001A607047054B1A6842F400121A60103347
:1001B0001A6842F400121A60704700BF000E0E4029
:1001C000012922D118280ED002D8172805D070474F
:1001D0001F280ED0492812D070471E4B1A6842F4CF
:1001E00080421A6070471B4B1A6842F400421A6042
:1001F0007047184B1A6842F080021A607047154B1E
:100200001A6842F400121A60704709BB18280ED011
:1002100002D8172805D070471F280ED0492812D0C1
:1002200070470D4B1A6842F480421A6070470A4BBF
:100230001A6842F400421A607047074B1A6842F08D
:1002400080021A607047044B1A6842F400121A6068
:10025000704700BF300E0E40340E0E40F0B583B034
:1002600004460D46002301931F4B984207D11F46B9
:100270001E4E38462946B0470028FAD119E01C4BDB
:10028000984209D11F461B4E384601A9B0470028A5
:10029000FAD1019B2B7019E0174B984209D11E46E9
:1002A000144C304601A9A0470028FAD1019B2B70BD
:1002B00018E0124B9C4209D11E460E4C304601A953
:1002C000A0470028FAD1019B2B700BE00C4B9C42FD
:1002D00008D11E46074C304601A9A0470028FAD194
:1002E000019B2B7003B0F0BD00080E40DD1D08001F
:1002F00000800940651C080000C0094000000A4059
:1003000000400A4070B50C46214B984207D11E466A
:10031000204D30462146A8470028FAD12BE01E4B3D
:10032000984207D11E461D4D30462146A847002859
:10033000FAD122E01A4B984207D11E46174D30469B
:100340002146A8470028FAD119E0164B984207D158
:100350001E46124D30462146A8470028FAD110E02B
:10036000114B98420FD11E460C4D30462146A847EE
:100370000028FAD109E0012070BD012070BD0120E4
:1003800070BD012070BD002070BD012070BD00BF98
:1003900000080E40CD1D080000800940511C0800D7
:1003A00000C0094000000A4000400A4030B585B056
:1003B0000820134DA847134C134B1C60134A144BD1
:1003C0001A60144A144B1A60144B01934FF4E13332
:1003D00002934FF4006303930820A847204601A925
:1003E0000F4B98470F4D2B68986800210E4CA04783
:1003F0002B6858680021A047002005B030BD00BF21
:10040000E922080000080E40C48C072005030800FC
:10041000C08C07205D020800BC8C072000BD0105D0
:10042000951D080068050720B1280800F0B583B0C5
:100430000A4B984702AD25F8020D49200121084BCF
:1004400098470124074F084E28464FF4FA71B847E1
:1004500084F0010449202146B047F5E7F110080077
:100460004901080045130800C1010800F0B583B038
:100470000A4B984702AD25F8020D17200121084BC1
:1004800098470024074F084E28464FF4FA71B847A2
:1004900084F0010417202146B047F5E7F110080069
:1004A0004901080045130800C1010800F8B5012002
:1004B00000210322164B9847164B186020B10021EB
:1004C0000A460B46144CA0470026124D134C144FFD
:1004D000286800214FF6FF720B46A0471148124BC7
:1004E000984736B138464FF40021104B9847002604
:1004F00005E038464FF400210D4B98470126642053
:100500000C4B9847286800210A460B46A047DFE7B6
:10051000550A0800C4090720AD0A0800610C08004C
:10052000000E0E40C456080009270800C51E08002A
:10053000C91E0800DD13080010B582B0002302AA0E
:1005400022F8023D044908681946044CA047044BB0
:10055000984702B010BD00BFC4090720D10B0800A6
:100560005D06080000F1080343604FF6FF72028148
:10057000C360036100230360704700BF0023036171
:10058000704700BF43685A684A6042688A605A6888
:1005900091605960416008610368013303607047EE
:1005A00010B40C884FF6FF739C4201D103690CE034
:1005B00000F10803C268128892B2944205D35B68C6
:1005C0005A68128892B29442F9D25A684A6091608D
:1005D0008B60596008610368013303605DF8044B68
:1005E000704700BF436882689A60836842685A60B7
:1005F00003695A68824204BF82685A60002202611D
:100600001A68013A1A601868704700BF034800680A
:10061000006880F3088862B600DF00BF08ED00E0E4
:100620004FF0807340F8043C40F8081C002340F869
:100630000C3C40F8202C4038704700BF064B19682E
:100640000868B0E8F00F80F309884FF0000080F3ED
:1006500011884EF00D0E7047F08A07204FF080523F
:10066000014B1A60704700BF04ED00E0EFF311800A
:100670004FF0A00181F311887047002008B5034BAB
:100680009847034B1A6801321A6008BD6D060800CE
:100690002C01072080F31188704700BF08B5044A79
:1006A0001368013B136013B90020024B984708BD43
:1006B0002C01072095060800EFF309800C4B1A68FF
:1006C00020E9F00F10602DE908404FF0A00080F302
:1006D000118800F0EBFE4FF0000080F31188BDE8B8
:1006E000084019680868B0E8F00F80F3098870477F
:1006F000F08A072008B54FF08052054B1A60054B71
:100700009847054B98470020044B984708BD00BF09
:1007100004ED00E06D0608001111080095060800C0
:10072000034A044B1A600722043B1A60704700BF5B
:100730001F48010014E000E010B5094B1A6842F4AC
:1007400070021A601A6842F070421A60054B9847AE
:100750000024054B1C60054B9847204610BD00BF88
:1007600020ED00E0210708002C0107200D060800FD
:1007700030B4134A1368834201D21A46FAE711468D
:1007800054681519854203D16868044454601046C2
:1007900042688418A3420CD10A4C24689C4206D0BB
:1007A0005B681A4442600B681B68036002E00360E8
:1007B00000E00360814218BF086030BC704700BF92
:1007C000CC890720C889072038B50446284B9847AC
:1007D000284B1B689BB9284A284B136000215160A5
:1007E00047F6F0729818234D286047F6F475595172
:1007F00099505A601860224B1A68103A1A60002CFF
:100800002DD004F1100212F0070F1CBF22F00702D6
:100810000832511E47F6FE73994222D816490C68D9
:1008200063689A4204D9236813B121461C46F7E74E
:10083000104B1B689C4216D00D68103523680B6066
:1008400063689B1A202B04D9A018436062600D4B8B
:1008500098470B4B1A686168521A1A6004E0002529
:1008600002E0002500E00025074B9847284638BDE8
:10087000E1100800C8890720CC890720C809072093
:1008800030010720710708003D12080010B504462A
:1008900068B1074B9847074B196854F80C2C0A4469
:1008A0001A60A4F11000044B9847044B984710BD00
:1008B000E110080030010720710708003D12080010
:1008C00010B50446036C3BB903681BBB4068134B6F
:1008D0009847002363601DE06AB980681A46104B90
:1008E0009847A268236C1344A3606268934211D3B3
:1008F0002368A3600EE0C0681A46094B9847226C33
:100900005242E3681344E36021688B4202D2636879
:100910001A44E260A36B0133A36310BDD51708002E
:100920003127080038B5034605685DB1026CC4681C
:100930001444C4604068844228BFDD600846D9681A
:10094000014B984738BD00BF31270800F8B5044671
:100950001D4B9847A36C002B12DD636A83B104F131
:1009600024061A4D1A4F01E0636A4BB13046A8477E
:1009700000B1B847A36C013BA364A36C002BF3DC6C
:100980004FF0FF33A364134B98470F4B9847636CAA
:10099000002B12DD236983B104F110060B4D0C4FBF
:1009A00001E023694BB13046A84700B1B847636CFA
:1009B000013B6364636C002BF3DC4FF0FF33636433
:1009C000044B9847F8BD00BF7D060800E9150800F4
:1009D000211708009D06080038B50D46044618B9D1
:1009E000164B984700BFFDE7154B98472368226CCC
:1009F000E06B00FB02F0191861600021A163A360A5
:100A0000821A1344E3604FF0FF336364A36455B963
:100A100023697BB104F110000A4B9847012809D1E2
:100A2000094B984706E004F11000084DA84704F16F
:100A30002400A847064B9847012038BD6D060800E2
:100A40007D060800E91508005D0608006505080038
:100A50009D060800F8B50D461746064688B1502099
:100A60000E4B9847044660B105FB06F001300B4B76
:100A70009847206040B92046094B984701E000BFE5
:100A8000FDE7084B9847FAE7E66325642046012115
:100A9000054B984784F84D702046F8BDC9070800FB
:100AA0008D0808006D060800D90908002DE9F04FEF
:100AB00085B08A469B46ADF80620044618B9384BE7
:100AC000984700BFFDE709B9036C1BB90027354EF5
:100AD000354D03E0324B984700BFFDE7B047A26BAE
:100AE000E36B9A4212D2204651465A462F4B984702
:100AF000636A3BB104F124002D4B9847012801D1D2
:100B00002C4B9847284B9847012046E0BDF806300B
:100B10001BB9254B984700203FE01FB902A8264B80
:100B200098470127A847254B9847B047636CB3F116
:100B3000FF3F04BF00236364A36CB3F1FF3F04BF16
:100B40000023A364A84702A80DF106011C4B984797
:100B5000E8B9B047D4F83890D4F83C80A847C145EC
:100B60000FD104F11000BDF80610164B984720462F
:100B7000154B9847154B98470028AFD10D4B984718
:100B8000ACE72046104B9847104B9847A6E7204605
:100B90000D4B98470D4B9847002005B0BDE8F08FEE
:100BA0006D0608007D0608009D060800C1080800C3
:100BB000E91508005D0608006D160800E110080040
:100BC000951608003D1508004D0908003D12080063
:100BD0002DE9F0410E4615469846044618B91C4BBF
:100BE000984700BFFDE729B9036C1BB1184B984724
:100BF00000BFFDE7164B98470746A26BE36B9A428E
:100C000018D2204631464246124B9847A36CB3F1A6
:100C1000FF3F0AD1636A7BB104F124000E4B984771
:100C200060B16DB101242C600BE0A36C0133A364AF
:100C3000012406E0002404E0012402E0012400E095
:100C400001243846054B98472046BDE8F08100BF97
:100C50006D060800C1080800E9150800950608009F
:100C60002DE9F04F85B089469A46ADF80620044636
:100C700018B9464B984700BFFDE709B9036C2BB97B
:100C80000027434EDFF838B1424D03E03F4B984711
:100C900000BFFDE7B047A36B002B28D0E5682046D6
:100CA00049463D4B9847BAF1000F12D1A36B013B67
:100CB000A363236813B9394B98476060236993B1E4
:100CC00004F11000364B984701280CD1354B98475A
:100CD00009E0E560636A33B104F12400304B9847C2
:100CE00008B1304B98472B4B984701204BE0BDF89B
:100CF00006301BB9274B9847002044E017B902A8DB
:100D0000D8470127A847284B9847B047636CB3F1F1
:100D1000FF3F04BF00236364A36CB3F1FF3F04BF34
:100D20000023A364A84702A80DF106011F4B9847B2
:100D300018BBB047D4F83880A847B8F1000F16D1D7
:100D4000236823B9B0476068194B9847A84704F156
:100D50002400BDF80610174B98472046164B9847BD
:100D6000164B9847002895D10E4B984792E720469E
:100D7000114B9847114B98478CE720460E4B9847EC
:100D80000E4B9847002005B0BDE8F08F6D060800B7
:100D90007D0608009D060800250908002D1708009B
:100DA000E91508005D060800E11008009516080026
:100DB000591708003D1508004D0908003D120800AC
:100DC0006D16080038B504460D460D4B9847636C08
:100DD000B3F1FF3F04BF00236364A36CB3F1FF3F93
:100DE00004BF0023A364074B9847A36B23B904F106
:100DF00024002946044B98472046044B984738BDA9
:100E00007D0608009D060800A11508004D09080090
:100E100010B504460F4B1B6898800F4B1B889BB284
:100E2000984207D20D4B18680A4B196804310C4BD5
:100E3000984710BD0B4B1868064B19680431084BD6
:100E40009847094B1B889BB29C423CBF064B1C80B9
:100E500010BD00BFF08A07200C8B0720108B0720E5
:100E6000A1050800EC890720340107202DE9F84F7F
:100E70000E4617469A460A9DDDF83080814618B91D
:100E8000624B984700BFFDE7092D03D95F4B984798
:100E900000BFFDE750205E4B98470446002800F055
:100EA000B180B8F1000F40F0A980B800584B9847C6
:100EB000206318B92046574B9847A3E0A521BA00F4
:100EC000554B984707F18047013F236B03EB87039E
:100ED00023F0070B04F13400314610224F4B9847A2
:100EE000002384F84330092D34BF2E460926E662DC
:100EF000E664271D3846DFF87081C04704F118000A
:100F0000C0472461C6F10A062683646258464946F2
:100F10005246434B9847206010F0070F03D03B4BDD
:100F2000984700BFFDE70B9B03B11C603D4B984702
:100F30003D4B1A6801321A603C4B1B682BBB3B4B84
:100F40001C60394B1B68012B29D1394E06F1C809A9
:100F5000DFF8E0803046C04714364E45FAD1DFF85E
:100F60000C914846334EB047DFF804814046B04705
:100F70003148B0473148B0473148B047314BC3F8EA
:100F80000090314BC3F8008009E0304B1B6833B947
:100F9000264B1B68DB6A9D4224BF244B1C60E36A1E
:100FA0002B4A1268934284BF294A1360294A116868
:100FB000616401311160284A1268934284BF264A55
:100FC000136003EB83031A4800EB83003946234B7D
:100FD0009847234B98471D4B1B684BB1134B1B681D
:100FE000DB6A9D4207D91F4B98470120BDE8F88F67
:100FF0000120BDE8F88F0120BDE8F88FC0F83080EF
:1010000040465BE74FF0FF30BDE8F88F6D06080003
:10101000C90708008D0808001D280800212A0800BB
:10102000210608007D060800308B0720F08A072083
:10103000248A072065050800F48A0720F88907201C
:10104000D8890720EC890720108B0720F08907201A
:10105000348B0720148B0720208A07208505080081
:101060009D0608005D0608007D050800188B072016
:101070000C8A072010B584B00023009301930293DB
:1010800003930F480F494FF480720F4CA04701287B
:101090000ED10E4B984701280AD10D4B98470122DB
:1010A0000C4B1A6000220C4B1A800C4B984704E042
:1010B00018B9074B984700BFFDE704B010BD00BF4B
:1010C00029140800EC5608006D0E0800D11808001D
:1010D0006D060800F08907200C8B072039070800EF
:1010E000024B1A6801321A60704700BFEC8A072071
:1010F00010B5044B9847044B1C88A4B2034B984787
:10110000204610BD7D0608000C8B07209D060800B8
:101110002DE9F0413D4B1B68002B71D13C4B1A88E7
:10112000013292B21A801B889BB203BB394B1B68F9
:101130001B681BB1384B984700BFFDE7354B19685A
:10114000364A106818601160354A11680131116023
:101150001B681B6823B94FF6FF72324B1A8006E0FA
:101160002C4B1B68DB68DB689A882E4B1A80284B57
:101170001A8892B22B4B1B889BB29A4244D3254BC0
:101180001B681B6853B1234B1B68DB68DC68A388B2
:101190001F4A128892B2934214D90FE04FF6FF72A1
:1011A000204B1A80BDE8F0811A4B1B68DB68DC68B5
:1011B000A388174A128892B2934207D9194A13801A
:1011C000BDE8F081184E194FDFF86C80251D2846C8
:1011D000B047A36A13B104F11800B047E36A3A6854
:1011E000934288BF3B6003EB830008EB80002946F5
:1011F0000F4B9847074B1B681B68002BD4D1CDE7DA
:101200000C4B1A6801321A60BDE8F081EC8A0720A5
:101210000C8B0720EC8907206D060800108B072037
:10122000088B072034010720E5050800208A0720E5
:1012300085050800D4890720248A07202DE9F84372
:10124000314B1B681BB9314B984700BFFDE7304B52
:1012500098472D4B1A68013A1A601B68002B48D139
:101260002C4B1B68002B46D00025DFF8D4802A4F7A
:101270002A4E1DE0D8F80C30DC6804F11800B8479D
:1012800004F104094846B847E36A3268934288BFCC
:10129000336003EB8303224800EB83004946214B74
:1012A0009847214B1B68E26ADB6A9A4228BF0125F6
:1012B000D8F80030002BDDD11C4B1B6863B11B4BF1
:1012C0001B687BB11A4D194CA8472368013B23606A
:1012D0002368002BF8D105E0012D03D0154B1B68C6
:1012E000012B0AD10022134B1A60134B984701249B
:1012F00004E0002402E0002400E000240F4B9847A3
:101300002046BDE8F88300BFEC8A07206D06080080
:101310007D060800308B0720E5050800208A07209D
:10132000248A072085050800F08A0720D489072031
:10133000111108002C8B07205D0608009D0608008F
:10134000F48A072038B50C46054618B91B4B984758
:1013500000BFFDE719B9194B984700BFFDE7184BCF
:1013600098472B881C44A4B2164A128892B2934222
:1013700008D9A3421ED9134B1B889BB22C809C42D8
:1013800010D907E0A34213D80E4B1B889BB29C4296
:101390000ED80FE00C4B186804300C4B98472046D1
:1013A0000B4B98470B4B984730B90B4B984738BDC0
:1013B0002C80EFE72C80F5E738BD00BF6D060800F4
:1013C000E11008000C8B0720F08A0720E5050800D3
:1013D000110E08003D1208005D06080010B5044615
:1013E00080B10A4B98470A4B1B881C44A4B2094B96
:1013F00018680430084B98472046084B9847084B1C
:10140000984708B9074B984710BD00BFE110080086
:101410000C8B0720F08A0720E5050800110E080054
:101420003D1208005D06080080B5154D154EDFF829
:1014300078801CE0144B9847144B1C68144B984759
:10144000ACB1144B9847114BDB68DC68201D124B84
:101450009847124B1A68013A1A602B68013B2B60BF
:101460000F4B9847206B0F4FB8472046B8472B6863
:10147000002BDFD13368012BF9D9C047F7E700BF54
:10148000F4890720248A0720E1100800F889072042
:101490003D1208007D060800E5050800308B072096
:1014A0009D0608008D0808005D06080008B51D4B64
:1014B0001B685BB91C4B1B6803EB83039B001B4A37
:1014C000D358CBB9184B1B6853B905E00122184B10
:1014D0001A6008BD1A682AB9164B984700BFFDE785
:1014E000114B12491A68013A1A601A6802EB82021B
:1014F00051F82220002AEDD00B4B1B6803EB83032D
:101500000A4A02EB83035A6852685A6003F10801E1
:101510008A4204BF52685A605B68DA68064B1A60F8
:1015200008BD00BFEC8A0720208A0720248A0720F4
:101530002C8B07206D060800F08A072038B50C4672
:1015400018B90F4B984700BFFDE70E4D29681831B9
:101550000D4B9847286804300C4B98474FF6FF73A3
:101560009C4205D129680A4804310A4B984738BD86
:10157000094B1888204480B2084B984738BD00BFFB
:101580006D060800F08A0720A1050800E50508009F
:10159000D8890720850508000C8B0720110E08004C
:1015A00038B50D4618B90A4B984700BFFDE7094CFE
:1015B00021681831084B984720680430074B98473A
:1015C000074B1888284480B2064B984738BD00BFA7
:1015D0006D060800F08A072085050800E50508006B
:1015E0000C8B0720110E080038B5C368DC681CB9E5
:1015F000164B984700BFFDE704F118052846144B29
:101600009847144B1B689BB9251D2846104B9847DB
:10161000E36A114A1268934284BF0F4A136003EBD6
:1016200083030E4800EB830029460D4B984703E0E7
:101630000C4829460A4B98470B4B1B68E06ADB6A4B
:10164000984234BF0020012038BD00BF6D0608005D
:10165000E5050800EC8A0720208A0720248A072055
:1016600085050800F48A0720F08A072008B518B914
:10167000054B984700BFFDE7044A12680260044A20
:101680001288828008BD00BF6D060800088B072005
:101690000C8B072038B50D46044618B91A4B9847ED
:1016A00000BFFDE719B9184B984700BFFDE7174B7E
:1016B00098472B884FF6FF7293421CD0144A11684A
:1016C00022688A4205D0134A128892B2A1889142B8
:1016D00013D9104A1188A288891A89B28B420ED96F
:1016E0000C49098889B2521A13442B8020460A4BB0
:1016F0009847002404E0002402E0012400E00124D3
:10170000064B9847204638BD6D0608007D06080048
:10171000088B07200C8B07206D1608009D0608001B
:101720000122014B1A6070472C8B0720014B18686F
:10173000704700BFF08A0720054B1B6833B1054B8B
:101740001B68002B14BF0220012070470020704747
:10175000F0890720EC8A072038B5044600282ED0EF
:10176000C36A174A1268D26A934228D2144A12688E
:10177000D26AC2F10A02028303EB8303114A02EB2D
:10178000830342699A4216D1051D28460E4B98479D
:101790000B4B1B68DB6AE3620C4A1268934284BFFE
:1017A0000A4A136003EB8303064800EB83002946D3
:1017B000074B984738BD024B1B68DB6AC36238BDD4
:1017C000F08A0720248A0720E5050800208A0720E0
:1017D0008505080038B50446D0B1C26AC36C9A4288
:1017E00016D0051D28460B4B9847E36CE362C3F106
:1017F0000A022283084A1268934284BF064A136091
:1018000003EB8303054800EB83002946044B98470C
:1018100038BD00BFE5050800208A0720248A07207C
:101820008505080010B504468180206191420BD8DF
:10183000D31A018B9BB2994211D90B4B1868211D09
:101840000A4B9847002010BD9A4201D2994208D213
:10185000074B1868211D054B9847002010BD01203B
:1018600010BD012010BD00BF6C8B0720A105080032
:10187000388B072070B50D4B98470D4B1B688BB903
:101880000C4D28460C4EB0470C4C2046B0470C4B34
:101890001D600C4B1C6005200C2100220A4B984750
:1018A000034B1860094B984770BD00BF7D060800C8
:1018B000688B07203C8B072065050800508B0720AC
:1018C000388B07206C8B0720550A08009D060800FE
:1018D00010B584B00B4B98470B4B1B6863B10923C1
:1018E00000930023019302930393084808494FF49F
:1018F0000072084CA04718B9074B984700BFFDE796
:1019000004B010BD75180800688B0720311A080054
:10191000F45608006D0E08006D06080010B584B07E
:10192000104C2468D4B10191ADF80820039073B92C
:101930000D4B984701280B4B186801A907BFBDF84C
:101940001820002300221346084CA04707E0204639
:1019500001A91A460023064CA04700E0002004B06D
:1019600010BD00BF688B072039170800AD0A0800BA
:10197000D10B08002DE9F04782B08146244B9847EF
:101980008046244B1B88834237D9234E234F27E0C0
:10199000DA68B2F800A01FFA8AFADB68DC68251D55
:1019A0002846B847636A20469847E369012B17D158
:1019B000238B53449BB2534506D9A38024613068DE
:1019C0002946174B98470BE0002300932046194601
:1019D0005246144CA04718B9134B984700BFFDE777
:1019E00033681A68002AD3D1104A11680A48016086
:1019F00013600123C9F8003002E00023C9F8003069
:101A0000044BA3F80080404602B0BDE8F08700BF59
:101A1000F1100800648B0720388B0720E5050800CB
:101A2000A10508001D1908006D0608006C8B072031
:101A30002DE9F04387B0514DDFF87081504B1B68A2
:101A40001A68002A00F09080DB681E88B6B24D4B01
:101A5000984703A84C4B98470746039B002B32D16D
:101A6000864225D8494B9847454B1B68DB68DC68A4
:101A7000201DC047E369012B15D1218B314420463D
:101A800089B23A463346424FB84701280BD100236A
:101A900000932046194632463E4EB04718B93E4B99
:101AA000984700BFFDE7636A204698470DE000268F
:101AB000F11B286889B2394B9847344B984720B9B5
:101AC000374B984701E0314B984702A82E4B984777
:101AD0000746344EDFF8B8903EE0059C1CB16169C2
:101AE00009B1201DC0470399022923D0032930D012
:101AF000002931D1BDF81030218B1944204689B21C
:101B00003A46C847012827D1636A20469847E369C7
:101B1000012B21D1228BBDF810301A4400230093F1
:101B20002046194692B21B4CA047A8B91A4B9847B9
:101B300000BFFDE7BDF8103023831BB9164B984753
:101B400000BFFDE7F918204689B23A463B46C84730
:101B500002E02046144B9847286803A90022134648
:101B6000B0470028B9D169E7064B984703A8064B50
:101B700098470746039B002B99D0A4E7688B072062
:101B8000388B0720E1100800751908003D12080085
:101B9000251808001D1908006D060800C50D08006D
:101BA0005D060800610C08008D080800E5050800C6
:101BB00000B583B011480DF107010122104B984781
:101BC00072B6BFF35F8F00220E4B1A700E4B1B785C
:101BD0009DF807100D4AD1549B2B03D100220A4BCC
:101BE0001A7002E00133084A13700122054B1A7083
:101BF000BFF35F8F62B603B05DF804FB008009405D
:101C0000D11C0800360107200C8C0720708B0720A0
:101C10002DE9F0410C46904660B9002A0EDD8F1880
:101C2000094E0A4D306821462B6898470134BC4262
:101C3000F8D106E04FF0FF30BDE8F0810020BDE8AC
:101C4000F0814046BDE8F081C48C0720BC8C0720A1
:101C5000436913F0020F1DBFC1F30801C1610020E9
:101C600001207047436913F0010F05D08369C3F366
:101C700008030B6000207047012070472DE9F041F8
:101C80000E461546013802280FD892B10024DFF81D
:101C90003C800D4FD8F80000315D3B689847002824
:101CA0000ADB0134A542F5D10AE04FF0FF30BDE870
:101CB000F0810020BDE8F0814FF0FF30BDE8F081F9
:101CC0002046BDE8F08100BFC08C0720C48C0720EF
:101CD0002DE9F04F83B005469046002A47D04E1CB0
:101CE000254F264CDFF8A8A0DFF894B006F1FF39A5
:101CF00000230193224B9D4206D158464946214B71
:101D000098470028F9D119E01F4B9D4209D1994607
:101D1000484601A9A0470028FAD1019B06F8013CDA
:101D200017E01A4B9D4209D19946484601A9A047A0
:101D30000028FAD1019B06F8013C14E0554508D172
:101D4000504601A9A0470028FAD1019B06F8013CA2
:101D500009E0BD4207D1384601A9A0470028FAD1C1
:101D6000019B06F8013C0136B8F10108BED1002004
:101D700003B0BDE8F08F00BF00400A40651C0800BA
:101D800000080E40DD1D08000080094000C0094029
:101D900000000A4010B4AC2303600A684B68B2FB31
:101DA000F3F31B095C1E4FF6FE7294420AD80362DD
:101DB0008B68436040F20223C0F820315023036057
:101DC000002000E001205DF8044B7047436913F0E8
:101DD000020F1ABFC161002001207047436913F050
:101DE000010F1DBF83690B7000200120704700BFE9
:101DF00010B50E480E4B984700203E210D4B9847DA
:101E00000D4CA0470028FCD00C4B98470C4A0D4BBA
:101E10009A620D4CA0470028FCD010200B4B98472D
:101E20000B4B98470148024B984710BD00BD010578
:101E3000A500072065220800B9220800C922080071
:101E4000013F0D2000060E40D922080001220800A3
:101E5000F523080010B54FF40042124B5A600B20D6
:101E6000114CA0470C20A0470D20A0470E20A047F2
:101E70003B204FF060510D4CA04755204FF0605172
:101E8000A04756204FF06051A04768200849A0475E
:101E90005C200849A04708484FF44071074A084BA6
:101EA000984710BD501A0E40E9220800A91F0800EB
:101EB0007900002801000028000E0E4001000008F3
:101EC0007D20080001637047416370474264B1F1AF
:101ED000805F16D004D8C1B1B1F1006F0AD013E011
:101EE000B1F1405F11D0B1F1605F0ED0B1F1205F70
:101EF0000AD17047036F016F0B4023EA02030367A7
:101F000002E0036F1343036742607047416412F0BD
:101F1000010F14BF4166016612F00A0F14BF01627F
:101F2000416212F0020F02D0C0F8801004E012F0FB
:101F3000080F18BFC0F8841041610160704700BFEE
:101F400010B44164019C0CB1416600E001660BB124
:101F5000016500E041650AB1016300E04163016190
:101F600001605DF8044B704712F0100F10D0C0F8FC
:101F7000B01012F0200F14BFC0F8D410C0F8D01069
:101F800012F0400F14BFC0F8C010C0F8C410704762
:101F9000C0F8B410704700BFC36C0164704700BF45
:101FA000C06C7047806C704770B582B00D464409B4
:101FB00004F5001404F20774660201F0F044B4F171
:101FC000205F30D006D8B4F1006F0AD0B4F1805F42
:101FD00018D049E0B4F1405F30D0B4F1605F2DD04B
:101FE00042E000F01F000124844030464FF00061C1
:101FF00022461F4B984715F0010F14BF74663466D4
:10200000012032E000F01F000124844030464FF0F0
:1020100080512246164B984715F0010F14BF746685
:102020003466012021E000F01F010124304604FA4B
:1020300001F12A460F4B9847204616E000F01F0199
:10204000012405F0605205EA04030093304604FAC7
:1020500001F1B2F1605F14BF00220122C5F38003D9
:10206000054DA847204600E0002002B070BD00BF2B
:10207000CD1E08000D1F0800411F0800F0B583B0F9
:1020800007460E46154602F0F044B4F1205F26D014
:1020900006D8B4F1006F0AD0B4F1805F13D034E0F9
:1020A000B4F1405F1FD0B4F1605F1CD02DE04FF061
:1020B00000613246164B984715F0010F14BF7E663B
:1020C0003E66012022E04FF080513246104B984787
:1020D00015F0010F14BF7E663E66012016E00D4B21
:1020E0009847012012E005F0605205F001030093CB
:1020F00038463146B2F1605F14BF00220122C5F3B9
:102100008003054CA047012000E0002003B0F0BD93
:10211000CD1E08000D1F0800411F08002DE9F041E9
:1021200004460E46104B9847054620460F4B9847ED
:10213000054017D00E4F07F10C046C3754F80C3CD7
:10214000B3420AD154F8081C294206D0236830460D
:10215000984754F8083C25EA0305BC4202D01034E5
:10216000002DEBD1BDE8F081A11F0800A51F0800DC
:10217000148C0720F8B50B4C2468062C10D80A4F95
:102180002601BD19B9516A60AB600699E960013456
:1021900004490C6011461A46044B98470020F8BDCC
:1021A0000120F8BD108C0720148C0720691F08003F
:1021B00008B502480B21024B984708BD000E0E409F
:1021C0001D21080008B502480C21024B984708BDA4
:1021D00000100E401D21080008B502480D21024BD9
:1021E000984708BD00120E401D21080008B502489E
:1021F0000E21024B984708BD00140E401D21080017
:10220000174B1A6B22F07002104318639B6E13F089
:10221000080F09D14FF40063114901E0013B19D0C7
:102220008A6E12F0080FF9D00D4B1A6B22F00302E0
:1022300042F002021A63986E10F008000CD14FF4BD
:102240000063074901E0013B08D08A6E12F0080FD5
:10225000F9D0704701207047002070470120704777
:1022600000060E4038B111490B6A114A1A40114B51
:1022700013430B6270470D4A136A23F45C1323F077
:10228000030343F45C1343F00103090289B20B43D7
:102290001362936E13F0010FFBD0044A136A43F0EC
:1022A0009B7343F480331362704700BF00060E40F7
:1022B000FCFFC8FE02003701024B986E00F480302C
:1022C000704700BF00060E404FF00052014B9A626B
:1022D000704700BF00060E40024B986E00F00200EF
:1022E000704700BF00060E402C2820D81F280DD8AC
:1022F000124B9A69012383401A40934219D001235B
:1023000003FA00F00D4B1861002070470B4BD3F817
:1023100008212038012383401A4093420BD0012327
:1023200003FA00F0054BC3F80001002070470120BC
:102330007047002070470020704700BF00060E4025
:10234000FEE700BF10B51E4B1E4A9A4203D01E4B3B
:102350001B4A9A4204D31D4B1D4A9A420FD31AE0DE
:102360001C4B1D4CE41A24F00304043400231448CD
:1023700014495A581A500433A342FAD1EBE7174BC9
:102380001749C91A21F003011A1D1144002243F80C
:10239000042F8B42FBD1134A22F0604323F07F03CA
:1023A00011498B6002F16042B2F5801F03D28A6846
:1023B00042F000528A600D4B98470D4B9847FEE75C
:1023C000000007208C580800A4090720CC8C0720A7
:1023D000A809072004000720A7090720A40907204F
:1023E000C78C07200000080000ED00E0B9260800B7
:1023F000B52508003E4B1B6B03F00303032B5FD88E
:10240000DFE803F0020E2B2B3A4B5B6913F0800FD1
:1024100014BF4FF400424FF4FA42374B1A604FE0BA
:10242000334B1B6A13F0807F03D0344A324B1A605F
:1024300046E0334A304B1A602D4B1B6A03F07003A1
:10244000102B02D0202B04D03AE02E4A2A4B1A60DF
:1024500036E02A4A284B1A6032E0254B1B6A13F0FB
:10246000807F03D0254A244B1A6012E0244A224B75
:102470001A601F4B1B6A03F07003102B02D0202B35
:1024800004D006E01F4A1C4B1A6002E01B4A1A4B9C
:102490001A60174B1B6B03F00303022B0DD1144B77
:1024A000986A996A144BC0F30A401A6800FB02222A
:1024B000C9B2B2FBF1F21A6002E0134A0E4B1A6085
:1024C0000B4B1B6B03F07003702B07D10A4B1A6880
:1024D0000E49A1FB020252081A607047044B196BA7
:1024E000054BC1F302111A68CA401A60704700BF59
:1024F00000060E40101A0E4038010720001BB700DE
:1025000000093D0000127A00001C4E0EABAAAAAAD8
:10251000094B1B6813B9094A074B1A60064B1B6825
:102520001A180749914204DB1046034A1060184606
:1025300070474FF0FF307047848C0720D0AC0720E5
:10254000FC7F08204FF0FF30704700BF4FF400536E
:102550004B600020704700BF01207047002070478B
:1025600030B583B00D4C20464FF4803101220C4B26
:1025700098470C4B009320460B214FF480324023A8
:10258000094DA84720464FF48031084B98474FF437
:102590000062074B1A6003B030BD00BF000E0E4052
:1025A0000D1F08003905080075210800991F080053
:1025B00000E100E000B585B0274B9847274B9847CE
:1025C000274B98470125009526484FF4002100220B
:1025D0001346254CA047254B98472548254CA04736
:1025E00025482649A04726482649274AA04700955E
:1025F0000023019302930393244825494FF48072EA
:10260000244CA047A84202D023481A4B98470223E3
:1026100000930023019302930393204820494FF431
:1026200080721C4CA047012802D01E48114B9847CD
:102630000423009300230193029303931A481B4938
:102640004FF48072134CA047012802D01848094B60
:102650009847184B9847FEE7F11D0800551E0800E3
:10266000AD030800000E0E40411F08006125080060
:10267000FC560800092708002057080028570800C2
:1026800038570800505708005C5708002D04080010
:10269000685708006D0E0800785708006D040800A0
:1026A0009C570800AC570800AD040800D05708003C
:1026B000E45708007510080070B50F4E0F4D761BDB
:1026C000B61007D0043D0024013455F8043F984764
:1026D000A642F9D10A4E0B4D03F0C2F8761BB61094
:1026E00008D0043D0024013455F8043F9847A64221
:1026F000F9D170BD70BD00BF6C5808006C5808005F
:10270000745808006C5808000FB410B5074B82B01D
:1027100004AC54F8042B186823468168019400F037
:10272000EDF902B0BDE8104004B07047680507201D
:10273000844641EA000313F0030349D1403A23D30E
:102740000B6803604B6843608B688360CB68C36031
:102750000B6903614B6943618B698361CB69C36119
:102760000B6A03624B6A43628B6A8362CB6AC36201
:102770000B6B03634B6B43638B6B8363CB6BC363E9
:1027800040304031403ADBD230320BD30B6803602B
:102790004B6843608B688360CB68C3601030103136
:1027A000103AF3D20C3205D351F8043B40F8043B05
:1027B000043AF9D2043208D0D2071CBF11F8013B09
:1027C00000F8013B01D30B8803806046704700BFCF
:1027D000082A13D38B07B1D010F00303AED0C3F196
:1027E0000403D21ADB071CBF11F8013B00F8013BC0
:1027F000A4D331F8023B20F8023B9FE7043AD9D337
:10280000013A11F8013B00F8013BF9D20B78037053
:102810004B7843708B78837060467047F0B48407C0
:1028200043D0541E002A3ED0CDB2034603E0621EC0
:10283000002C38D0144603F8015B9A07F7D1032C1B
:102840002AD9CDB245EA05250F2C45EA054515D90B
:10285000A4F110073F0903F1100606EB07161A460C
:10286000156055609560D5601032B242F8D104F021
:102870000F040137032C03EB07130DD91E46224624
:10288000043A032A46F8045BFAD8221F22F0030216
:102890000432134404F003042CB1C9B21C4403F8FD
:1028A000011BA342FBD1F0BC704714460346C6E7A8
:1028B00000290CBF022200224FF4806300F000B810
:1028C0002DE9F0413C4D04462D68884616461F46CA
:1028D00015B1AB6B002B4FD0022E30D8002F2EDB62
:1028E0002846214601F088F8A38900226260A2618F
:1028F0001A0628D423F083039BB2022EA3812DD085
:10290000B8F1000F3CD0012E13D09BB203F00800A9
:102910002A4A80B2EA63C4F80080C4F81080676174
:1029200078B113F0030F18BF0027A7600020BDE89F
:10293000F08143F001037A42A381A261E5E74FF001
:10294000FF30BDE8F0812846216901F0B5F9A3897F
:10295000022E23F083039BB2A381D1D1002004F186
:10296000430243F0020300250121A381A5602260F8
:1029700022616161BDE8F081284601F059F8ABE7BA
:10298000002F08BF4FF48067384601F08BFC80466B
:1029900028B1A38943F080039BB2A381B3E74FF42E
:1029A000806001F07FFC804618B9A3894FF0FF30AA
:1029B000D5E74FF48067ECE768050720253A080063
:1029C00020F0030110F00300C0F1000051F8043BB7
:1029D00000F1040C4FEACC0C6FF000021CBF22FA8D
:1029E0000CF213434FF0010C4CEA0C2C4CEA0C4C4B
:1029F000A3EB0C0222EA030212EACC1204BF51F844
:102A0000043B0430F4D013F0FF0F1FBF013013F468
:102A10007F4F013013F47F0F18BF0130704700BFA4
:102A200040EA01039B0770B42AD1032A28D90C4637
:102A30000346214654F8045BA5F1013626EA050653
:102A400016F0803F05D1043A032A43F8045B21467F
:102A5000EFD89AB10C78013A1C7001333CB16AB1DD
:102A600011F8014F013A03F8014B002CF7D12AB1BC
:102A70001A44002103F8011B9342FBD170BC70473C
:102A80000346E6E74B6E2DE9F0479C040E46804670
:102A900091462AD59368126802F1080A1BB31AE915
:102AA000A000BF0817D0043D002401E0A74210D0C9
:102AB000404655F8041F324601F050F8431C04F11B
:102AC0000104F3D10023C9F80830C9F80430BDE887
:102AD000F087D9F80830A3EB8703C9F808300AF16A
:102AE000080A002BDBD10020ECE701F0B1F900234C
:102AF000C9F80830C9F80430BDE8F0872DE9F04F77
:102B0000B1B01C46029190460893069018B1836BB1
:102B1000002B00F0E880029DAB899AB2900407D4A4
:102B20006A6E43F4005322F40051AB819AB2696695
:102B3000110740F1B780DDF808B0DBF81030002B4A
:102B400000F0B08002F01A020A2A00F0B7800023D9
:102B50000DF180090A93159314930993CDF84C90C5
:102B60004E4698F80030002B00F0C884252B00F06A
:102B7000C58408F1010201E0252B04D01378144626
:102B80000132002BF8D1C8EB040595B1149B159ABE
:102B900001332A44072BC6F8008075601592149300
:102BA0007BDD002A40F0D5840998149228444E46D3
:102BB00009902378002B00F0ED8300214FF00002F4
:102BC0004FF0FF3C63788DF8472004918A4604F16A
:102BD00001080846654608F10108A3F12002582AB9
:102BE00000F2D982DFE812F0CB02D702D702D2027C
:102BF000D702D702D702D702D702D70282028F02AA
:102C0000D70284009302D7022B0196019601960108
:102C1000960196019601960196019601D702D70278
:102C2000D702D702D702D702D702D702D702D702DC
:102C30003001D702D702D702D702D702D702D70274
:102C4000D702D702D7027B01D702D702D702D70219
:102C5000D702A401D702D702BF01D702D702D702F9
:102C6000D702D702D702D702D702D702D702E40190
:102C7000FA01D702D702D7021602FA01D702D70209
:102C80001B02D7022802890066027D02D7023A029F
:102C9000D7021901D702D702AF0208360998284493
:102CA000099086E70698029900F090FDB0B9029D60
:102CB000AA8902F01A020A2A7FF449AFDDF808B0A7
:102CC000BBF90E30002BFFF642AF0698594642463C
:102CD000234600F03DFD31B0BDE8F08F4FF0FF30EE
:102CE00031B0BDE8F08F00F0A3FE14E74042089336
:102CF0004AF0040A98F800306DE71AF020030490B7
:102D0000AC4600F0F480DDF820B00BF1070323F0AF
:102D1000070303F108040894D3E9004500234FF0AA
:102D2000000000218DF84700CDF814C00791BCF1D8
:102D3000000FA8BF2AF0800A54EA050240F0AD80D7
:102D4000BCF1000F40F0A980002B40F0C0831AF0C6
:102D5000010F00F0BC83302330AF07F8413DC7EBD3
:102D600009040594DDF814B0079CE345B8BFE346B9
:102D7000CDF80CB01CB10BF1010BCDF80CB01AF072
:102D80000205079505D0DDF80CB00BF1020BCDF86C
:102D90000CB01AF084030B9340F01B82049DDDF805
:102DA0000CB0CBEB0504002C40F31382102C40F345
:102DB0008984BE4D159A2B46149825464FF0100B6A
:102DC0006446B4461E4606E0831C0CF1080C084617
:102DD000103D102D11DD411C1032072915928CE891
:102DE00040081491F0DD002A40F0E681103D102DDE
:102DF0004FF001031046CC46EDDC31466646A44652
:102E00002C460D462244072B1592356074601493AE
:102E100000F36D830836591CDEE11AF0200F049090
:102E2000AC4600F08D80089DEB1D23F0070303F1F5
:102E3000080BD3E90045CDF820B001236FE74AF035
:102E4000800A98F80030C6E64AF0100A1AF0200FFF
:102E50000490AC468DF8471000F0C880089CE11D36
:102E600021F00701D1E900230831089114461D46DD
:102E7000002A73F1000BC0F2CE83BCF1000F9DF865
:102E80004700A8BF2AF0800A54EA05020790CDF84F
:102E900014C04FF001033FF453AF012B00F019832E
:102EA000022B0DF17F0340F04C82DDF828B019466B
:102EB00004F00F0022091BF8000042EA05722B09FA
:102EC000087052EA03000F4614461D4601F1FF3117
:102ED000EED1CDE90E23C7EB0903059342E74AF093
:102EE000100A1AF020030490AC467FF40CAF1AF0DD
:102EF000100240F011831AF0400300F00D83DDF85A
:102F000020B01346BBF800400BF1040B0025CDF8B0
:102F100020B004E7A3F13002002018F8013B00EBD9
:102F2000800002EB4000A3F13002092AF5D954E6F3
:102F30004AF0100A1AF0200F0490AC467FF473AFE9
:102F40001AF0100F40F0EF821AF0400F00F0EB8201
:102F5000DDF820B00025BBF800400BF1040B012385
:102F6000CDF820B0DBE6AC46514D1AF0200F0490AE
:102F70008DF847100A9500F0F080089DEA1D22F0B8
:102F8000070202F1080BCDF820B0D2E900451AF093
:102F9000010F00F0AA8254EA050B00F0A68230224D
:102FA0008DF849304AF0020A8DF848200223B6E62F
:102FB000089BDDF820B01B6801244FF000050BF1E1
:102FC000040B049003948DF847508DF85830CDF8D9
:102FD00020B0059416AF4FF0000CD0E61AF0200F89
:102FE0000490AC468DF847107FF438AF1AF0100FFC
:102FF00040F0A7821AF0400F00F0A382DDF820B065
:10300000BBF900400BF1040BE51722462B46CDF827
:1030100020B02DE74AF0400A98F80030DBE598F838
:10302000003042466C2B03BF08F101084AF0200A29
:1030300053784AF0100ACEE51AF0200F8DF84710A9
:1030400000F0F782089C2168099CE5172B46089D33
:10305000224604350895C1E9002382E5089CAC4668
:1030600027684FF0000504908DF847500434002F76
:1030700000F03283BCF1000F3846C0F2078362468D
:103080000021CDF804C001F0B1FBDDF804C0002838
:1030900000F03A83C01B9DF847506045A8BF6046CA
:1030A0000590089407954FF0000C5BE65058080017
:1030B00010580800089BDDF820B00490B2481C6846
:1030C000302278230BF1040BAC468DF849304AF0DE
:1030D000020ACDF820B000258DF848200A9002237E
:1030E0001DE64AF0200A98F8003074E5DDF820B0BB
:1030F000DBF800000BF104030028FFF6F7AD08939E
:1031000098F8003067E598F800302B2163E598F8CF
:10311000003008F101042A2B00F00583A3F13002EE
:10312000092A98BF002500F2FA8214F8013B05EB4A
:10313000850502EB4505A3F13002092AF5D945EAD8
:10314000E575A04649E5904C1AF0200F0490AC4676
:103150000A948DF847107FF410AF1AF0100F40F06A
:10316000EA811AF0400F00F0E681DDF820B000257A
:10317000BBF800400BF1040BCDF820B007E798F83E
:10318000003000297FF427AD202124E54AF0010A10
:1031900098F800301FE504908DF84710002B00F0E0
:1031A000F98001254FF0000B03958DF858308DF80C
:1031B00047B0059516AF0EE70698029913AAFFF7D8
:1031C00061FC002840F0ED801498159A431CCC4611
:1031D000FEE5149B159A591C9DF8470068B1013211
:1031E0000DF14700012307291592149186E8090083
:1031F00000F360810B4608360131079C64B102324E
:1032000012A8022307291592149186E8090000F3F9
:1032100057810B46083601310B9D802D00F001814E
:10322000059DC5EB0C04002C2FDD102C574D22DD25
:1032300030464FF0100B2E462546069C06E003F163
:10324000020C08300B46103D102D10DD591C1032B9
:103250000729159280E840081491F0DD002A63D117
:10326000103D102D4FF0010C13464846EEDC2C4665
:10327000614635460646224407291592356074603A
:10328000149100F3C18008360131059D07292A44B5
:10329000159237607560149140F3C180002A40F0A8
:1032A000308114924E461AF0040F00F08B80049D7A
:1032B000DDF80CB0CBEB0504002C40F38380102C20
:1032C00040F31E821499324D1027DDF818A0DDF866
:1032D00008B005E0881C08361946103C102C10DD9B
:1032E0004B1C1032072B159286E8A0001493F1DDD9
:1032F000002A7DD1103C102C4FF0010011464E46A3
:10330000EEDC22440728159235607460149059DD74
:10331000002A4FD1099CDDF80CB0049DAB45ACBF31
:103320005C44641909945EE02046029913AAFFF7F1
:10333000A9FB002835D1149B159A03F1010C4846CE
:1033400081E7E00840EA457004F00702E9083032FE
:1033500050EA010B1F461A7004460D4603F1FF3375
:10336000EFD11AF0010FCDE90C01394600F0B98018
:10337000302A3FF4F4AC1F46C7EB0905302305950E
:1033800001F8013CEEE400BF245808004058080052
:1033900050580800159B23B10698029913AAFFF70D
:1033A00071FB029CA3895B063FF598AC099831B08C
:1033B000BDE8F08F0698029913AAFFF763FB002877
:1033C000EFD1159A099CDDF80CB0049DAB45ACBF5C
:1033D0005C446419099432B10698029913AAFFF764
:1033E00051FB0028DDD1002014904E46FFF7B9BBF9
:1033F0005046594613AAFFF745FB0028D1D114992E
:10340000159A481C4E4668E7002A40F0F780059C54
:103410000123209721941594224614934E46083692
:1034200041E7049DDDF80CB0CBEB0504002C7FF7E1
:10343000F7AE102CA64D40F3708129464FF0100BCB
:1034400025466446B4460E4606E0981C0CF1080C6E
:103450000B46103D102D0FDD591C10320729159217
:103460008CE840081491F0DDBAB9103D102D4FF0F2
:1034700001001346CC46EFDC33466646A4462C4694
:103480001D4622440728159235607460149000F39D
:10349000AF800836411C0346C2E60698029913AA7B
:1034A000FFF7F0FA00287FF47CAF149B159A581CA4
:1034B000CC46CEE7002A79D119464E4613469CE603
:1034C000002A40F08480012113464E46A4E64F4670
:1034D00048E4002D08BF0A2C46D2303430AF07F83C
:1034E000414DC7EB090305933CE4022317E4002A8E
:1034F00040F0AF80134601214E466DE64446FFF78B
:1035000058BB0698029913AAFFF7BCFA00287FF46B
:1035100048AF159A4E46C6E6089D2C6804350895B6
:103520000025FFF7FCBB089D01232C680435089596
:103530000025FFF7F4BB089D2C680435089500258D
:1035400025E5089D2C6804350895E51722462B468D
:103550008EE40698029913AAFFF794FA00287FF4E4
:1035600020AF4E46FFF79ABB0DF17F0B03965E46E8
:10357000E346204629460A22002301F0B9FD3032F5
:103580003270204629460A22002301F0B1FD04468C
:103590000D4654EA0500374606F1FF36E9D1C7EB80
:1035A0000903DC46039E0593FFF7DCBB06980299EE
:1035B00013AACDF804C0FFF765FADDF804C00028AF
:1035C0007FF4EFAE149B159A591C4E4615E60698EB
:1035D000029913AACDF804C0FFF754FADDF804C02D
:1035E00000287FF4DEAE149B159A591C4E4613E654
:1035F000002A56D1012113464E4611E6069802993B
:1036000013AAFFF73FFA00287FF4CBAE1499159A5E
:1036100001314E4639E64FF02D0B644265EB45050E
:103620008DF847B0CDF81CB0CDF814C00123FFF7DA
:103630007EBB1AF0100F1DD11AF0400F58D0089D14
:10364000DDF824B02B6804350895A3F800B0FFF727
:1036500088BA0698029913AACDF804C0FFF712FAA7
:10366000DDF804C000287FF49CAE149B159A591C09
:103670004E46B1E5DDF820B0099CDBF800300BF1D7
:10368000040BCDF820B01C60FFF76BBA0894FFF76D
:1036900097F99DF84740059007944FF0000CFFF70D
:1036A00061BB0698029913AACDF804C0FFF7EAF9A6
:1036B000DDF804C000287FF474AE149B159A591CE1
:1036C0004E46ADE5149B159A0133024DFFF79ABBA8
:1036D0004058080050580800BCF1060F34BF63463C
:1036E0000623089423EAE37405930394164F72E4C7
:1036F000089C099D2368043408941D60FFF731BAC3
:103700001498124D0130FCE59DF84750CDF814C0D7
:10371000079508948446FFF725BB0846B1E6A04606
:103720000025FFF75ABADDF820B098F80130DBF831
:1037300000500BF10402002D0892A046BFF64BAAE0
:103740004FF0FF35FFF747BA3858080050580800C7
:103750002DE9F0474F6EADF58D6D88461997D8F875
:103760001C70B1F80CA0B1F80E900797D8F824702F
:103770001AAC4FF480652AF0020A002669460094CC
:10378000049402950595ADF80CA0ADF80E9009973C
:1037900006960546FFF7B2F9041E07DB2846694680
:1037A00000F02AF9B04218BF4FF0FF34BDF80C30DA
:1037B0005B0605D5B8F80C3043F04003A8F80C3090
:1037C00020460DF58D6DBDE8F08700BF2F4B70B51D
:1037D000064618680C4610B1826B002A36D0A589BF
:1037E000ABB219070CD52269AAB113F001011ED0A2
:1037F000636900215B42A361A160F2B1002070BD4A
:10380000DA063AD55B0724D4226945F00803A38180
:103810009BB2002AE9D103F42071B1F5007FE4D016
:103820003046214600F0CEFCA3892269DDE79807E7
:1038300058BF6169A160002AE0D1A3891A06DDD5CD
:1038400043F04003A3814FF0FF3070BD00F0F0F86B
:10385000C5E7216B49B104F14003994203D03046DA
:1038600000F02AFAA58900232363226925F02405A4
:103870000021ADB222606160C7E745F04005092331
:1038800033604FF0FF30A58170BD00BF6805072091
:10389000024B13B1024800F005B870470000000069
:1038A0002D3B0800014600200246034601F024BBE0
:1038B0008B892DE9F0419AB20D46110780463CD420
:1038C0006A6843F40063002AAB8159DDAC6A002CBE
:1038D0004BD09BB203F48052002192B2D8F8006022
:1038E000C8F80010002A4FD02A6D5F0705D5696817
:1038F0002B6B521A0BB1EB6BD21A4046E9690023CD
:10390000A047441C4AD0AB892A6923F400639BB2C8
:1039100000212A60DA04AB8169604CD4296BC8F8B5
:10392000006011B305F14003994202D0404600F017
:10393000C3F900202863BDE8F0812E69AEB191077C
:103940002C680CBF6B6900232E60A41BAB600AE0DF
:10395000324623466F6A4046E969B8470028C0EB03
:103960000404064404DD002CF2DC0020BDE8F081F4
:10397000AB894FF0FF3043F04003AB81BDE8F081ED
:10398000EA6B002AA2DCF0E701234046E969A04780
:10399000431C02461ED0AB89AC6AA6E7D8F80030BB
:1039A0005BB9AA89296922F4006292B26B60D304E0
:1039B000AA812960B2D52865B0E71D2B01D0162B4E
:1039C00013D1A9892B6921F400610022A9812B6000
:1039D0006A60A3E7D8F80030002BDCD01D2B01D0A3
:1039E000162BC5D1C8F80060BFE7AB8943F0400390
:1039F000AB81BDE8F08100BF10B5044682B008B1CC
:103A0000836B53B1B1F90C0008B902B010BD204668
:103A100002B0BDE81040FFF74BBF019100F008F87D
:103A20000199EFE7014900F09FBB00BF4550080036
:103A30002DE9F04F846B83B00746002C65D17D687B
:103A400033480423032107F53B72F863C7F8E412F7
:103A5000C7F8E822C7F8E04205F15C00AB812C60B2
:103A60006C60AC606C66EC812C616C61AC61214671
:103A70000822FEF7D3FEDFF89CB0BE68DFF898A0FE
:103A8000DFF89890DFF8988001230922ED61C5F8EE
:103A900020B0C5F824A0C5F82890C5F82C80214690
:103AA000F381B28134607460B460746634617461AF
:103AB000B461082206F15C000193FEF7AFFEFD68D9
:103AC00012200222F661C6F820B0C6F824A0C6F87B
:103AD0002890C6F82C802146A881EA812C606C6071
:103AE000AC606C662C616C61AC6105F15C00082215
:103AF000FEF794FE019BED61C5F820B0C5F824A047
:103B0000C5F82890C5F82C80BB6303B0BDE8F08FE2
:103B1000253A0800394D08005D4D0800954D080014
:103B2000B54D0800704700BF704700BF38B5094D5C
:103B3000094C641BA41018BF05EB840505D0013C9B
:103B400055F8043D9847002CF9D1BDE8384001F004
:103B500091BE00BF80580800845808002DE9F0414C
:103B600093890F46990482B01446804606D4526E5B
:103B700043F4005342F40052A381626600F01CFB40
:103B800001283ED03A46404601A904F15C0301F009
:103B900069F9421C06462DD000283AD09DF8041041
:103BA000002509E02368197023680133236001357B
:103BB000B5422ED201ABE95CA368013B002BA360A8
:103BC000F0DAA269934206DB23681970236819783A
:103BD00001330A29EAD14046224601F0EFF8B0F15C
:103BE000FF33584258410028E1D04FF0FF3002B077
:103BF000BDE8F081A38943F04003A38102B0BDE892
:103C0000F0817B1EFE2BBDD8F9B206468DF804105C
:103C1000C6E7384602B0BDE8F08100BFF8B5234DD5
:103C20000F46044600F092FEAB685E6826F003067D
:103C3000F11B01F6EF7121F47F6121F00F01A1F575
:103C40008057B7F5805F07DB2046002101F062F85E
:103C5000AB683344984204D0204600F079FE00203F
:103C6000F8BD2046794201F055F801300DD0104BD7
:103C7000AA681968F61B46F001062046C91B566063
:103C8000196000F065FE0120F8BD2046002101F01A
:103C900041F8AB68C21A0F2ADEDD064D04492D68D3
:103CA00042F00102401B5A600860D5E790050720EA
:103CB000948C07209C0907202DE9F0410D4606460B
:103CC000002955D000F042FE55F8041CDFF870C101
:103CD000A5F1080421F00103E218DCF80800576898
:103CE000904227F0030768D011F00101576032D0ED
:103CF0000021D0194068C00706D43B4490680029D1
:103D00004DD0D268C260906043F001026260E3501F
:103D1000E1B9B3F5007F2DD35A0A042A69D898096E
:103D2000383041000CEB810CDCF808204449624536
:103D300065D0516821F003018B4202D2926894450C
:103D4000F7D1D368E360A2609C60D4603046BDE8E0
:103D5000F04100F0FDBD55F8085C0CF10808641B4B
:103D6000A0682B44404542D0E568C560A860C0E724
:103D7000BDE8F081DB089A1001209040DCF80410C7
:103D80000CEBC3039A680143A260E360CCF8041013
:103D900030469C60D460BDE8F04100F0D9BD294DAB
:103DA000A842AED143F00102CCF81440CCF8104048
:103DB000E060A0606260E350C8E71F44CB0707D40F
:103DC00055F8081C641AE368A2680F44D3609A602F
:103DD0001D4B47F001021B6862609F42CCF808400F
:103DE000B4D31A4B30461968FFF718FFAEE701212C
:103DF0007FE7142A0BD802F15B00410092E78010A4
:103E00000125854048681346284348609AE7542AAC
:103E100003D8180B6E30410084E7B2F5AA7F03D8AF
:103E2000D80B773041007DE740F254518A4203D8E5
:103E3000980C7C30410075E7FC217E2072E700BFC2
:103E4000900507209805072098090720908C0720E7
:103E50002DE9F04F936883B0164681460C462BB38C
:103E60008B89190726D5226922B303F0020292B288
:103E70003568002A2CD04FF0000ADFF8E8B2D046AF
:103E8000D84534BF43465B4652464846B8F1000F1A
:103E90004FD0E169676AB847002856DDB3688244AD
:103EA0001B1AC0EB0808B360002BE9D1002003B057
:103EB000BDE8F08F48462146FFF788FC002840F017
:103EC0004881A389356803F0020292B2002AD2D158
:103ED00013F0010A42D1D046B8F1000F23D09A0561
:103EE000A76876D5B845C0F0A48013F4906F40F071
:103EF000B2802068BB4651465A4600F0C1FCA26819
:103F00002168D21B01EB0B03A26023604246B36819
:103F100092449B1AC2EB0808B360002BC6D0A38959
:103F2000B8F1000FDBD1D5F800A0D5F80480083532
:103F3000D2E7D5F800A0D5F804800835A0E74846B8
:103F40002146FFF759FD002859D0A38943F04003CB
:103F50004FF0FF30A38103B0BDE8F08F924601928D
:103F600093469046B8F1000F2BD0019F002F64D0EC
:103F700020682169C24534BF5346434688421F46E4
:103F8000D4F808C0626903D99444634500F3AE8055
:103F9000934236DB1346676A4846E1695A46B8479A
:103FA000071ED2DDBAEB070A3AD0B368BB44DB1B6D
:103FB000C7EB0808B360002B3FF478AFB8F1000FEF
:103FC000D3D10027D5F800B0D5F804800197083583
:103FD000C8E720682369984202D86369984572D27D
:103FE000B84538BF47463A46514600F049FCA368F9
:103FF0002268DB1B3A44A3602260002B9FD03A4624
:1040000085E71A465946009300F03AFC009BA168E8
:104010002268C91ABAEB070A1344A1602360C4D10D
:1040200048462146FFF7E8FC00288ED1CDF804A0D1
:10403000BBE720684746C3465DE758460A2142462B
:1040400000F0D4FB00287FD000F1010A0127CBEB60
:104050000A0A01978CE7226821696769C1EB020CA3
:1040600007EB47070CF1010207EBD77742447F10BB
:10407000974234BF17463A465B054FD5114648462E
:10408000CDF800C000F016F9DDF800C08346002826
:1040900062D062462169CDF800C0FEF749FBA289D3
:1040A000DDF800C022F4906242F08002A2810BEBA6
:1040B0000C00CCEB0702C4F810B067612060A2606E
:1040C0004746C34617E76FF00042904538BF424667
:1040D00092FBF3F202FB03F3676A4846E16952463A
:1040E000B84700287FF731AF024610E762465946CD
:1040F000CDF800C000F0C4FBDDF800C023684846DE
:10410000634423602146CDF800C0FFF775FCDDF85D
:1041100000C000287FF419AF674643E74846CDF852
:1041200000C000F017FCDDF800C083460028BED1B7
:1041300048462169FFF7C0FDA3890C2223F08003C4
:104140009BB2C9F8002001E7012708F1010A019795
:104150000EE74FF0FF30AAE60C23C9F80030A38920
:10416000F4E600BF00FCFF7F2DE9F04110F5387741
:10417000884619D000267D68BC68013D0ED4A3890D
:10418000013D012B06D9B4F90E302046013301D090
:10419000C04706436B1C04F16804F0D13F68002F50
:1041A000E9D13046BDE8F0813E463046BDE8F081B9
:1041B000004870476C050720014B1868704700BF26
:1041C0008C050720F0B58B8991B09AB296070C4602
:1041D000054637D4B1F90E10002917DB01AA00F00B
:1041E00039FF002810DB029B03F47043B3F5005144
:1041F0004F424F41B3F5004F2CD0A3894FF4806656
:1042000043F40063A3810BE0A3899AB212F0800FFC
:1042100043F40063A38114BF40264FF48066002757
:104220002846314600F046F8A389002829D01B4AC9
:1042300043F08003EA63A381206020616661A7B92F
:1042400011B0F0BD01F1430301220B600B614A6123
:1042500011B0F0BD124AA36A9342CED1A3894FF4A4
:1042600080663343A381E664DAE72846B4F90E108A
:1042700000F004FF0028E3D0A38943F00103A381E9
:10428000DEE79A05DCD404F1430243F00203012186
:10429000A381226022616161D2E700BF253A080054
:1042A000954D0800024B0146186800F003B800BFA6
:1042B000680507202DE9F04F01F10B05162D83B09D
:1042C000064627D935F0070527D4A94225D8304618
:1042D00000F03CFBB5F5FC7F26D2C14F4FEAD50C70
:1042E00007EBCC03DC689C4200F0D2816368E26893
:1042F00023F0030323445868A16840F00105CA6015
:10430000304691605D6000F023FB0834204603B026
:10431000BDE8F08F1025A942D9D900240C232046EE
:10432000336003B0BDE8F08F5FEA552C00F0898060
:10433000BCF1040F00F260814FEA951C0CF1380CBF
:104340004FEA4C01A64F07EB8101CC68A14205D191
:104350000CE0002B79DAE468A14207D0626822F011
:104360000302531B0F2BF4DD0CF1FF3C0CF1010C8D
:104370009B4B3C6903F1080E744500F07E81616837
:1043800021F003014A1B0F2A00F36481002AC3F8BD
:1043900014E0C3F810E069DAB1F5007F80F03A81EB
:1043A000C9088A104FF0010808FA02F803EBC101AE
:1043B0005A68886848EA0202A060E1605A608C602E
:1043C000C4604FEAAC030120984090425BD802429F
:1043D00006D12CF0030C400002420CF1040CFAD080
:1043E00007EBCC084446E146E3689C4207D146E12E
:1043F000002A80F25781DB689C4200F040815968B6
:1044000021F003014A1B0F2AF2DD1C4654F808CFA5
:10441000D96845F0010942F001081D44C3F8049031
:104420003046CCF80C10C1F808C07D613D61C5F87C
:104430000CE0C5F808E0C5F80480AA5000F088FA3E
:1044400064E77E214FF03F0C7CE722445068E3682C
:10445000A16840F00105CB6030469960556000F0DE
:1044600077FA0834204603B0BDE8F08F21444B684A
:10447000304643F001034B6000F06AFA08342046EE
:1044800003B0BDE8F08FBC68636823F00309A94559
:1044900004D3C5EB09030F2B00F39180514B524A13
:1044A0001968136805EB010A013304EB090B00F0EE
:1044B00061810AF5805A0AF10F0A2AF47F6A2AF00C
:1044C0000F0A30465146019200F024FCB0F1FF3F44
:1044D0008046019A00F00181834500F2FB80DFF8FD
:1044E00014C1C345DCF800305344CCF8003000F070
:1044F0004A8112683C4901321BBFCBEB080B5B447D
:10450000C1F80080CCF8003018F0070300F01481E7
:10451000C3F10802C3F5805390440833C244CAF380
:104520000B0ACAEB030A51463046CDF804C000F02E
:10453000F1FB431CDDF804C000F03581C8EB00023C
:10454000524442F00102DCF80030BC425344C7F848
:104550000880CCF80030C8F80420DFF898A015D007
:10456000B9F10F0F40F2EB806168A9F10C0222F063
:10457000070201F0010142EA010E0520A1180F2AED
:10458000C4F804E04860886000F21181174ABC68F2
:1045900011688B4288BF1360154A11688B4288BF2F
:1045A0001360626822F003029542C5EB020301D852
:1045B0000F2B04DC304600F0CBF90024A6E645F0D2
:1045C000010243F00103254462603046BD606B6028
:1045D00000F0BEF90834204603B0BDE8F08F00BFFC
:1045E00090050720908C07209C0907208C8C0720C1
:1045F000888C0720948C0720BCF1140F61D9BCF182
:10460000540F00F28F804FEA153C0CF16E0C4FEA0C
:104610004C0197E64B0A042B58D9142B00F2AD80BD
:1046200003F15B02500007EB80008368DFF8B8817C
:10463000834200F08A805A6822F00302914202D23B
:104640009B689842F7D1D9687A68E160A3608C6072
:10465000DC60B6E645F0010742F0010125446760E1
:1046600030465D611D61C5F80CE0C5F808E0696081
:10467000AA50083400F06CF948E65A68A1E609F13E
:10468000010919F0030F04F108047FF4ADAE2DE029
:1046900004F108036469A34208BF0CF1020C3FF463
:1046A00067AE23E6194448681C4654F8082FDB68B7
:1046B00040F001054D603046D3609A6000F048F943
:1046C00024E60CF15B0C4FEA4C013BE68A093832D8
:1046D0005000A8E7BC423FF402AFBC68626822F019
:1046E000030261E7D8F8008098457AD11CF0030FE7
:1046F000A8F108030CF1FF3CF4D17B6823EA000326
:104700007B60400098423FF6BEAE00283FF4BBAE4F
:104710000342CC467FF464AE400003420CF1040C2B
:10472000FAD05DE6BCF5AA7F19D84FEAD53C0CF16A
:10473000770C4FEA4C0105E64FF48053EEE6012377
:10474000C8F80430444600222EE792100120904021
:10475000D8F8042019460243C8F8042075E740F24F
:1047600054539C451BD84FEA954C0CF17C0C4FEAF6
:104770004C01E7E50AF1100AA3E6542B1FD80A0BF7
:104780006E3250004FE7CBF30B0100297FF4B1AE3E
:104790000AEB0901BA6841F001015160F6E6FC211B
:1047A0004FF07E0CCEE501224FF0000ACBE604F17B
:1047B00008013046FFF780FADAF80030E6E6B3F594
:1047C000AA7F03D8CA0B773250002CE740F254522C
:1047D000934203D88A0C7C32500024E7FC207E22CE
:1047E00021E77B688DE700BF90050720830770B441
:1047F000C9B240D0541E2AB303788B4223D0431C45
:1048000004E0FCB1057814468D421CD013F0030F70
:10481000184604F1FF3203F10103F2D1032C14D83E
:10482000651E54B303788B420DD0421C002302E076
:1048300004788C4207D0AB42104603F1010302F129
:104840000102F5D1002070BC704741EA0126034601
:1048500046EA06461A6818467240A2F1013525EA72
:10486000020212F0803F03F10403D9D1043C032C6F
:104870001846EFD8D4E71446D0E72046E3E700BF58
:104880008842F0B410D98C18A0420DD28518531E5E
:1048900042B121462A4611F8014D013B02F8014D73
:1048A0005C1CF8D1F0BC70470F2A44D940EA0103E0
:1048B0009B0744D1A2F110073F0900EB0716103601
:1048C0000C4603462568103343F8105C65681034C5
:1048D00043F80C5C54F8085C43F8085C54F8045C3A
:1048E00043F8045CB342EDD17B1C02F00F0C1B01BA
:1048F000BCF1030F1944034423D90E461D466446F8
:1049000056F8047B043C032C45F8047BF8D8ACF142
:10491000040424F00304043402F003022344214479
:10492000002ABFD01A4411F8014B03F8014B9342FF
:10493000F9D1F0BC70470346002AF3D1B2E7034631
:10494000F0E76246002AEDD1ACE700BF704700BF38
:10495000704700BF2DE9F04F0C4683B0904681466A
:10496000002900F0BA80FFF7F1FF08F10B0654F8B8
:10497000043C162E23F00305A4F108074BD81021A0
:104980000E46B0454CD88D4251DADFF884B3781921
:10499000DBF808E0864500F0A680426822F0010CB2
:1049A0008444DCF804C01CF0010F54D000221046EF
:1049B000DB076FD454F8083CC3EB070ADAF804307D
:1049C00023F003032B44002862D0704500F0E980F7
:1049D00002EB030E8E455BDBC3688268D046D36072
:1049E0009A6058F8081FDAF80C302A1F242ACB6086
:1049F000996000F22381132A40F2B08023681B2AB9
:104A0000CAF808306368CAF80C3000F22B81083409
:104A10000AF11003A3E026F00706002E3146B0DAB3
:104A20000C230020C9F8003003B0BDE8F08FA04689
:104A3000AA1B0F2A03F001031AD82B437B603D44C5
:104A40006B6843F001036B604846FFF781FF404607
:104A500003B0BDE8F08F22F0030202EB050C8C4599
:104A6000A6DBC2688168A046CA6065469160DFE740
:104A7000B919334342F001007B600A44486053682F
:104A8000083143F0010353604846FFF715F9DBE7AF
:104A90008B4233DA41464846FFF70CFC804600283B
:104AA000D2D054F8043CA0F1080123F001023A44AA
:104AB000914200F0BC802A1F242A6ED8132A42D8C3
:104AC00003462246116819605168596092689A60DD
:104AD00021464846FFF7F0F8B6E7114603B0BDE8B7
:104AE000F04FFFF7E7BBDEF8042006F1100C22F0D0
:104AF0000302501960453DDA704659E7D04658F830
:104B0000080FDAF80C102A1F242AC160886000F20E
:104B1000A080132A40F29B8021681B2ACAF8081043
:104B20006168CAF80C1000F2B28008340AF1100271
:104B300021681D461160616857465160A368936003
:104B4000DAF8043074E723681B2A03606368436063
:104B500062D800F1080304F10802B3E74346226873
:104B600075461A60626857465A60A2689A60DAF819
:104B700004305DE7831B374443F00103CBF8087032
:104B80007B6054F8043C484603F001031E4344F89C
:104B9000046CFFF7DDFE20465AE72146FFF770FE62
:104BA00096E702EB030C06F110029445FFF670AF96
:104BB000574657F8081FDAF80C302A1F242ACB6012
:104BC000996000F28680132A77D923681B2ACAF8D5
:104BD00008306368CAF80C3000F2848008340AF1A7
:104BE000100322681A6062685A60A2689A60C6EB75
:104BF0000C020AEB060342F00102CBF808305A60BF
:104C0000DAF80430484603F001031E43CAF8046092
:104C1000FFF79EFE38461BE7A368242A8360E368FB
:104C2000C3602BD000F1100304F110024AE750F8E2
:104C3000042CA04622F003021544F9E62146404622
:104C400075465746FFF71CFEDAF80430F0E6424698
:104C50006EE7214640461D465746FFF711FEDAF83B
:104C60000430E5E6A368242ACAF81030E368CAF8DD
:104C7000143018D010340AF1180370E7226900F1DB
:104C800018030261616904F1180241611AE7A16821
:104C9000242ACAF81010E168CAF814100FD0103492
:104CA0000AF1180244E722690AF12003CAF8182021
:104CB00062691834CAF81C2051E73B4691E7216924
:104CC0000AF12002CAF8181061691834CAF81C10D9
:104CD0002EE721463846CDF804C0FFF7D1FDDDF8B8
:104CE00004C084E7A368242ACAF81030E368CAF82D
:104CF000143003D010340AF1180372E722690AF164
:104D00002003CAF8182062691834CAF81C2068E722
:104D10009005072038B5074C002305460846236058
:104D2000FDF7F6FB431C00D038BD2368002BFBD0F9
:104D30002B6038BDC88C072010B50C46B1F90E1099
:104D400000F0C2F9002803DB236D0344236510BD86
:104D5000A38923F48053A38110BD00BF2DE9F04146
:104D60000C4689891D46CB051646074606D5B4F97B
:104D70000E100022022300F093F9A18921F4805142
:104D8000A1813846B4F90E1032462B46BDE8F041F9
:104D900000F09EB810B50C46B1F90E1000F080F985
:104DA000A389421C0EBF23F4805343F48053206533
:104DB000A38110BDB1F90E1000F0F2B8F8B50D46A0
:104DC0001446074610B1836B002B48D0A289A06916
:104DD00093B2A060180738D52669002E35D0990403
:104DE000EDB215D5236862699E1B96421CDA013626
:104DF000A268591C013AA26021601D706369B34228
:104E00001AD0A389DB0701D50A2D15D02846F8BD95
:104E1000636E42F4005223F4005363662368A28158
:104E200062699E1B9642E2DB38462146FEF7E4FDAE
:104E300040B923680126DBE738462146FEF7DCFD52
:104E40000028E3D04FF0FF30F8BD38462146FEF78A
:104E5000BDFC0028F6D1A289266993B2BFE7FEF710
:104E6000E7FDB3E72DE9F0411E4686B00C46054646
:104E700017460F4B91B1D3F80080FFF799F90096D0
:104E8000034621463A462846C047431C03D1002228
:104E90008A2332602B6006B0BDE8F0811F68FFF7FF
:104EA00087F9009603462246284603A9B847ECE74F
:104EB000A009072021B1FF2A04D80A7001207047F9
:104EC000084670478A2303604FF0FF30704700BFE9
:104ED00070B5084C06460025084611461A4625605E
:104EE000FCF7CCFE431C00D070BD2368002BFBD028
:104EF000336070BDC88C0720F0B5274C85B026689C
:104F00000746D6F84841002C40D065681F2D1EDDAD
:104F1000224818B94FF0FF3005B0F0BD4FF4C8700B
:104F2000039102920193FFF7BDF903990446029A97
:104F3000019B0028EED0D6F8485100202560606023
:104F40000546C6F84841C4F88801C4F88C013FB949
:104F50006B1C00200235636044F8251005B0F0BDDD
:104F60000126AE4004EB8500C0F88820D4F88821E3
:104F7000022F42EA0602C4F88821C0F80831E7D1BE
:104F8000D4F88C311E43C4F88C61E1E706F5A674B1
:104F9000C6F84841B9E700BF0C580800A542080010
:104FA00038B5074C0023054608462360FDF7CAFACA
:104FB000431C00D038BD2368002BFBD02B6038BDCC
:104FC000C88C072070B50C46054631B110B1836B13
:104FD000002B2FD0B4F90C300BB9002070BD28463F
:104FE0002146FEF709FDE36A064633B12846E1692A
:104FF00098470028B8BF4FF0FF36A3891B061CD482
:10500000216B41B104F14003994202D02846FEF7DA
:1050100053FE00232363616C21B12846FEF74CFE4A
:1050200000236364FEF77EFD0023A381FEF77CFD71
:10503000304670BDFEF7FCFCCCE728462169FEF740
:105040003BFEDDE7024B01461868FFF7BBBF00BF20
:105050006805072038B5084C002305460846114668
:105060002360FDF773FA431C00D038BD2368002B82
:10507000FBD02B6038BD00BFC88C072038B5074C6B
:105080000023054608462360FDF766FA431C00D05E
:1050900038BD2368002BFBD02B6038BDC88C07209F
:1050A00070B5084C06460025084611461A4625608C
:1050B000FDF754FA431C00D070BD2368002BFBD0D1
:1050C000336070BDC88C072070B5084C06460025BB
:1050D000084611461A462560FCF79AFD431C00D08D
:1050E00070BD2368002BFBD0336070BDC88C0720D7
:1050F0004BB942B9002908BF002802D04FF0FF3158
:10510000084600F03BB882B0EC462DE9005000F0B4
:105110001DF8DDF804E002B00CBC70472DE9704FBB
:10512000089E14461D468046894600F029F804FB77
:1051300001F3A4FB00AB00FB05329344B8EB0A0873
:1051400069EB0B09C6E90089BDE8708F2DE9704F46
:10515000089E14461D468046894600F061F900FB12
:1051600005F5A0FB04AB04FB0154A344B8EB0A080B
:1051700069EB0B09C6E90089BDE8708F704700BF75
:1051800000292DE9F00FC0F2A1800024002BC0F20D
:105190009880154606460F46002B3FD18A4258D9C3
:1051A000B2FA82F34BB1C3F1200201FA03F720FAFD
:1051B00002F29D4000FA03F61743290CB7FBF1F207
:1051C00001FB1277A8B200FB02F34FEA164C4CEA3F
:1051D0000747BB4209D97F1902F1FF3C80F00581E6
:1051E000BB4240F20281023A2F44FF1AB7FBF1F3AF
:1051F00001FB137100FB03F0B6B246EA014188429D
:1052000008D9491903F1FF3780F0F180884240F254
:10521000EE80023B43EA0242002303E08B420AD9BC
:1052200000231A461046194614B1404261EB410171
:10523000BDE8F00F7047B3FA83F8B8F1000F40F003
:1052400088808B4202D3824200F2E2800023012256
:10525000E8E712B90123B3FBF2F5B5FA85F2002AAB
:105260003AD17F1B280C1FFA85FC0123B7FBF0F114
:1052700000FB11770CFB01F24FEA164848EA07479A
:10528000BA4207D97F1901F1FF3802D2BA4200F2BF
:10529000C4804146BF1AB7FBF0F200FB12700CFB52
:1052A00002FCB6B246EA0040844507D9401902F133
:1052B000FF3702D2844500F2AE803A4642EA01420C
:1052C000B0E7E443524263EB430362E7404261EBE1
:1052D00041014FF0FF3459E79540C2F1200927FA08
:1052E00009F126FA09F99740280CB1FBF0F800FB08
:1052F00018111FFA85FC0CFB08F349EA07094FEA6D
:10530000194747EA01418B4206FA02F608D94919C2
:1053100008F1FF327AD28B4278D9A8F102082944E9
:10532000C91AB1FBF0F300FB13170CFB03F21FFAD1
:1053300089F949EA0747BA4207D97F1903F1FF31D2
:1053400060D2BA425ED9023B2F44BF1A43EA0843F7
:105350008CE7C8F1200225FA02F103FA08FC27FACB
:1053600002F320FA02F207FA08F741EA0C0C4FEABE
:105370001C49B3FBF9F109FB11331FFA8CFA0AFB44
:1053800001FB17433A0C42EA03439B4505FA08F038
:1053900008D913EB0C0301F1FF3235D29B4533D909
:1053A00002396344CBEB0303B3FBF9F209FB12337D
:1053B0000AFB02FABFB247EA0347BA4508D917EB1E
:1053C0000C0702F1FF331BD2BA4519D9023A6744E0
:1053D00042EA0145A5FB0001CAEB07078F424FF0E7
:1053E00000030AD305D02A461CE76246FDE63B4689
:1053F00010E706FA08F68642F5D26A1E002311E786
:105400001A46E5E70B46A0E71146CBE7904687E74B
:105410004346424606E7023A50E702392F4439E74D
:105420002DE9F00F144605460E46002B43D18A4263
:1054300053D9B2FA82F757B1C7F1200620FA06F61F
:1054400001FA07F302FA07F400FA07F51E43210CEC
:10545000B6FBF1F201FB1266A0B200FB02F32F0CC7
:1054600047EA0646B34209D9361902F1FF3780F000
:10547000FD80B34240F2FA80023A2644F61AB6FBA7
:10548000F1F301FB136100FB03F0ADB245EA01410A
:10549000884208D9091903F1FF3680F0E980884273
:1054A00040F2E680023B43EA0242002310461946DE
:1054B000BDE8F00F70478B424CD8B3FA83F6002E4C
:1054C0004FD18B4202D3824200F2DD80BDE8F00F63
:1054D0000023012210461946704712B90124B4FB7B
:1054E000F2F4B4FA84F2002A40F08280091B260C00
:1054F000A7B20123B1FBF6F006FB101107FB00F287
:105500004FEA154C4CEA01418A4207D9091900F1CA
:10551000FF3C02D28A4200F2C8806046891AB1FB81
:10552000F6F206FB121107FB02F7ADB245EA0145A0
:10553000AF4208D92C1902F1FF3180F09B80A742BD
:1055400040F29880023A42EA004210461946BDE80D
:10555000F00F704700231A4610461946BDE8F00FB9
:105560007047C6F1200522FA05F703FA06F421FA7E
:1055700005F301FA06FB20FA05F53C434FEA14480F
:10558000B3FBF8FC08FB1C331FFA84F909FB0CFA87
:1055900045EA0B0B4FEA1B4545EA03439A4502FADD
:1055A00006F204D91B190CF1FF356FD3AC46CAEBD8
:1055B0000303B3FBF8F508FB153309FB05F91FFAE4
:1055C0008BFB4BEA0347B94504D93F1905F1FF337B
:1055D00062D31D4645EA0C4CACFB0223C9EB07071E
:1055E0009F424FF000054AD346D062462B465DE706
:1055F0009440C2F1200921FA09FC914020FA09F9EE
:10560000260CBCFBF6F806FB18CCA7B207FB08F388
:1056100049EA01094FEA194141EA0C4C634500FA95
:1056200002F509D91CEB040C08F1FF323BD26345AB
:1056300039D9A8F10208A444C3EB0C0CBCFBF6F367
:1056400006FB13C107FB03F21FFA89F949EA01417E
:105650008A4207D9091903F1FF3022D28A4220D9A0
:10566000023B2144891A43EA084343E73A4605E7E7
:10567000334618E70A4666E7B0409042B5D20CF1CF
:10568000FF32002312E7334632460FE79A458DD9A1
:10569000ACF1020C23448AE7B9459AD9023D27446C
:1056A00098E70346DEE79046C6E70238214435E72F
:1056B000427574746F6E2076616C75653A2025644E
:1056C0000D0A0000427574746F6E207072657373FA
:1056D0006564210D0A000000257309092563092569
:1056E000750925750925750D0A00000049444C45CA
:1056F00000000000546D7220537663002D2D20466B
:1057000072656552544F53204578616D706C652009
:1057100096205461736B73202D2D0A0D000000003C
:105720002D2D2025730A0D0041726475696E6F205E
:105730004475652F580000002D2D20436F6D706952
:105740006C65643A202573202573202D2D0A0D00E9
:1057500041707220323320323031370031393A31E2
:10576000343A353100000000426C696E6B205258AB
:10577000207461736B0000004661696C656420747D
:105780006F206372656174652074657374206C6545
:1057900064207461736B0D0A00000000426C696E36
:1057A0006B206C6564207461736B00004661696CEA
:1057B000656420746F20637265617465207465731D
:1057C0007420626C696E6B207461736B0D0A00004B
:1057D000427574746F6E2068616E646C65722074BB
:1057E00061736B004661696C656420746F2063723D
:1057F00065617465207465737420627574746F6E6E
:10580000207461736B0D0A00430000004001072003
:1058100030313233343536373839414243444546E6
:1058200000000000303132333435363738396162A8
:105830006364656600000000286E756C6C290000CA
:105840003030303030303030303030303030303058
:105850002020202020202020202020202020202048
:10586000F8B500BFF8BC08BC9E46704791380800E8
:1058700019010800F8B500BFF8BC08BC9E46704787
:04588000F500080027
:08588400FCF8FF7F01000000A9
:10588C004FF48063204A136002F5007213601F4BC3
:10589C001B6A13F0807F07D11D4A1C4B1A621A46F3
:1058AC00936E13F0010FFBD01A4A184B1A621A466A
:1058BC00936E13F4803FFBD0144B1A6B22F003024F
:1058CC0042F001021A631A46936E13F0080FFBD0D4
:1058DC00114A0E4B9A621A46936E13F0020FFBD0CC
:1058EC0011220A4B1A631A46936E13F0080FFBD061
:1058FC001222064B1A631A46936E13F0080FFBD054
:10590C00064A074B1A607047000A0E4000060E400C
:10591C000908370009083701013F0D2000BD0105BA
:10592C00380107201B4B984206D800231A4A1360F3
:10593C0002F5007213607047184B984207D84FF469
:10594C008073154A136002F5007213607047144B94
:10595C00984207D84FF400730F4A136002F5007297
:10596C00136070470F4B984207D84FF440730A4AA4
:10597C00136002F50072136070470B4B984294BF92
:10598C004FF480634FF4A063034A136002F5007276
:10599C0013607047BFEA2101000A0E407FF0FA0243
:1059AC00FF8FD003FFB3C4047F4A5D05AAAAAAAA3D
:1059BC0000800000FFFF010000093D000000000016
:1059CC00000000002C04072094040720FC0407208E
:1059DC0000000000000000000000000000000000BB
:1059EC0000000000000000000000000000000000AB
:1059FC000000000008580800000000000000000033
:105A0C00000000000000000000000000000000008A
:105A1C00000000000000000000000000000000007A
:105A2C00000000000000000000000000000000006A
:105A3C00000000000000000000000000000000005A
:105A4C00000000000000000000000000000000004A
:105A5C00000000000000000000000000000000003A
:105A6C000000000000000000010000000000000029
:105A7C000E33CDAB34126DE6ECDE05000B000000EE
:105A8C00000000000000000000000000000000000A
:105A9C0000000000000000000000000000000000FA
:105AAC0000000000000000000000000000000000EA
:105ABC0000000000000000000000000000000000DA
:105DEC00000000000000000040010720415343491F
